{
  "_format": "hh3-artifact-1",
  "contractName": "AttendanceSystem",
  "sourceName": "contracts/AttendanceSystem.sol",
  "abi": [
    {
      "inputs": [
        {
          "internalType": "address",
          "name": "_attendanceTokenAddress",
          "type": "address"
        }
      ],
      "stateMutability": "nonpayable",
      "type": "constructor"
    },
    {
      "anonymous": false,
      "inputs": [
        {
          "indexed": false,
          "internalType": "string",
          "name": "uniqueCode",
          "type": "string"
        },
        {
          "indexed": false,
          "internalType": "string",
          "name": "attendanceCode",
          "type": "string"
        }
      ],
      "name": "AttendanceCodeUpdated",
      "type": "event"
    },
    {
      "anonymous": false,
      "inputs": [
        {
          "indexed": false,
          "internalType": "string",
          "name": "uniqueCode",
          "type": "string"
        },
        {
          "indexed": false,
          "internalType": "address",
          "name": "student",
          "type": "address"
        }
      ],
      "name": "AttendanceMarked",
      "type": "event"
    },
    {
      "anonymous": false,
      "inputs": [
        {
          "indexed": false,
          "internalType": "string",
          "name": "uniqueCode",
          "type": "string"
        },
        {
          "indexed": false,
          "internalType": "address",
          "name": "account",
          "type": "address"
        }
      ],
      "name": "Claimed",
      "type": "event"
    },
    {
      "anonymous": false,
      "inputs": [
        {
          "indexed": false,
          "internalType": "string",
          "name": "uniqueCode",
          "type": "string"
        },
        {
          "indexed": false,
          "internalType": "string",
          "name": "name",
          "type": "string"
        },
        {
          "indexed": false,
          "internalType": "address",
          "name": "teacher",
          "type": "address"
        },
        {
          "indexed": false,
          "internalType": "uint256",
          "name": "date",
          "type": "uint256"
        }
      ],
      "name": "ClassCreated",
      "type": "event"
    },
    {
      "anonymous": false,
      "inputs": [
        {
          "indexed": false,
          "internalType": "string",
          "name": "uniqueCode",
          "type": "string"
        },
        {
          "indexed": false,
          "internalType": "bytes32",
          "name": "root",
          "type": "bytes32"
        },
        {
          "indexed": false,
          "internalType": "uint32",
          "name": "total",
          "type": "uint32"
        },
        {
          "indexed": false,
          "internalType": "bytes32",
          "name": "contentHash",
          "type": "bytes32"
        },
        {
          "indexed": false,
          "internalType": "string",
          "name": "cid",
          "type": "string"
        }
      ],
      "name": "ClassFinalized",
      "type": "event"
    },
    {
      "anonymous": false,
      "inputs": [
        {
          "indexed": false,
          "internalType": "address",
          "name": "teacher",
          "type": "address"
        }
      ],
      "name": "TeacherRegistered",
      "type": "event"
    },
    {
      "inputs": [],
      "name": "attendanceToken",
      "outputs": [
        {
          "internalType": "contract AttendanceToken",
          "name": "",
          "type": "address"
        }
      ],
      "stateMutability": "view",
      "type": "function"
    },
    {
      "inputs": [
        {
          "internalType": "string",
          "name": "_uniqueCode",
          "type": "string"
        },
        {
          "internalType": "address",
          "name": "account",
          "type": "address"
        },
        {
          "internalType": "bytes32[]",
          "name": "proof",
          "type": "bytes32[]"
        }
      ],
      "name": "claim",
      "outputs": [],
      "stateMutability": "nonpayable",
      "type": "function"
    },
    {
      "inputs": [
        {
          "internalType": "string",
          "name": "",
          "type": "string"
        },
        {
          "internalType": "address",
          "name": "",
          "type": "address"
        }
      ],
      "name": "claimed",
      "outputs": [
        {
          "internalType": "bool",
          "name": "",
          "type": "bool"
        }
      ],
      "stateMutability": "view",
      "type": "function"
    },
    {
      "inputs": [
        {
          "internalType": "string",
          "name": "",
          "type": "string"
        }
      ],
      "name": "classCid",
      "outputs": [
        {
          "internalType": "string",
          "name": "",
          "type": "string"
        }
      ],
      "stateMutability": "view",
      "type": "function"
    },
    {
      "inputs": [
        {
          "internalType": "string",
          "name": "",
          "type": "string"
        }
      ],
      "name": "classContentHash",
      "outputs": [
        {
          "internalType": "bytes32",
          "name": "",
          "type": "bytes32"
        }
      ],
      "stateMutability": "view",
      "type": "function"
    },
    {
      "inputs": [
        {
          "internalType": "string",
          "name": "",
          "type": "string"
        }
      ],
      "name": "classFinalized",
      "outputs": [
        {
          "internalType": "bool",
          "name": "",
          "type": "bool"
        }
      ],
      "stateMutability": "view",
      "type": "function"
    },
    {
      "inputs": [
        {
          "internalType": "string",
          "name": "",
          "type": "string"
        }
      ],
      "name": "classRoot",
      "outputs": [
        {
          "internalType": "bytes32",
          "name": "",
          "type": "bytes32"
        }
      ],
      "stateMutability": "view",
      "type": "function"
    },
    {
      "inputs": [
        {
          "internalType": "string",
          "name": "",
          "type": "string"
        }
      ],
      "name": "classTotal",
      "outputs": [
        {
          "internalType": "uint32",
          "name": "",
          "type": "uint32"
        }
      ],
      "stateMutability": "view",
      "type": "function"
    },
    {
      "inputs": [
        {
          "internalType": "string",
          "name": "",
          "type": "string"
        }
      ],
      "name": "classes",
      "outputs": [
        {
          "internalType": "string",
          "name": "name",
          "type": "string"
        },
        {
          "internalType": "address",
          "name": "teacher",
          "type": "address"
        },
        {
          "internalType": "string",
          "name": "uniqueCode",
          "type": "string"
        },
        {
          "internalType": "uint256",
          "name": "date",
          "type": "uint256"
        },
        {
          "internalType": "bool",
          "name": "isActive",
          "type": "bool"
        },
        {
          "internalType": "string",
          "name": "currentAttendanceCode",
          "type": "string"
        },
        {
          "internalType": "uint256",
          "name": "codeTimestamp",
          "type": "uint256"
        }
      ],
      "stateMutability": "view",
      "type": "function"
    },
    {
      "inputs": [
        {
          "internalType": "string",
          "name": "_name",
          "type": "string"
        },
        {
          "internalType": "string",
          "name": "_uniqueCode",
          "type": "string"
        },
        {
          "internalType": "uint256",
          "name": "_date",
          "type": "uint256"
        }
      ],
      "name": "createClass",
      "outputs": [],
      "stateMutability": "nonpayable",
      "type": "function"
    },
    {
      "inputs": [
        {
          "internalType": "string",
          "name": "_uniqueCode",
          "type": "string"
        },
        {
          "internalType": "bytes32",
          "name": "_root",
          "type": "bytes32"
        },
        {
          "internalType": "uint32",
          "name": "_total",
          "type": "uint32"
        },
        {
          "internalType": "bytes32",
          "name": "_contentHash",
          "type": "bytes32"
        },
        {
          "internalType": "string",
          "name": "_cid",
          "type": "string"
        }
      ],
      "name": "finalizeClass",
      "outputs": [],
      "stateMutability": "nonpayable",
      "type": "function"
    },
    {
      "inputs": [
        {
          "internalType": "string",
          "name": "_uniqueCode",
          "type": "string"
        }
      ],
      "name": "getClassDetails",
      "outputs": [
        {
          "internalType": "string",
          "name": "name",
          "type": "string"
        },
        {
          "internalType": "address",
          "name": "teacher",
          "type": "address"
        },
        {
          "internalType": "uint256",
          "name": "date",
          "type": "uint256"
        },
        {
          "internalType": "bool",
          "name": "isActive",
          "type": "bool"
        }
      ],
      "stateMutability": "view",
      "type": "function"
    },
    {
      "inputs": [
        {
          "internalType": "string",
          "name": "_uniqueCode",
          "type": "string"
        }
      ],
      "name": "getFinalization",
      "outputs": [
        {
          "internalType": "bytes32",
          "name": "root",
          "type": "bytes32"
        },
        {
          "internalType": "uint32",
          "name": "total",
          "type": "uint32"
        },
        {
          "internalType": "bytes32",
          "name": "contentHash",
          "type": "bytes32"
        },
        {
          "internalType": "bool",
          "name": "finalized",
          "type": "bool"
        },
        {
          "internalType": "string",
          "name": "cid",
          "type": "string"
        }
      ],
      "stateMutability": "view",
      "type": "function"
    },
    {
      "inputs": [
        {
          "internalType": "address",
          "name": "_student",
          "type": "address"
        }
      ],
      "name": "getStudentClasses",
      "outputs": [
        {
          "internalType": "string[]",
          "name": "",
          "type": "string[]"
        }
      ],
      "stateMutability": "view",
      "type": "function"
    },
    {
      "inputs": [
        {
          "internalType": "address",
          "name": "_teacher",
          "type": "address"
        }
      ],
      "name": "getTeacherClasses",
      "outputs": [
        {
          "internalType": "string[]",
          "name": "",
          "type": "string[]"
        }
      ],
      "stateMutability": "view",
      "type": "function"
    },
    {
      "inputs": [
        {
          "internalType": "string",
          "name": "_uniqueCode",
          "type": "string"
        },
        {
          "internalType": "address",
          "name": "_student",
          "type": "address"
        }
      ],
      "name": "hasAttended",
      "outputs": [
        {
          "internalType": "bool",
          "name": "",
          "type": "bool"
        }
      ],
      "stateMutability": "view",
      "type": "function"
    },
    {
      "inputs": [
        {
          "internalType": "string",
          "name": "_uniqueCode",
          "type": "string"
        },
        {
          "internalType": "string",
          "name": "_submittedCode",
          "type": "string"
        }
      ],
      "name": "markAttendance",
      "outputs": [],
      "stateMutability": "nonpayable",
      "type": "function"
    },
    {
      "inputs": [],
      "name": "registerTeacher",
      "outputs": [],
      "stateMutability": "nonpayable",
      "type": "function"
    },
    {
      "inputs": [
        {
          "internalType": "address",
          "name": "",
          "type": "address"
        }
      ],
      "name": "registeredTeachers",
      "outputs": [
        {
          "internalType": "bool",
          "name": "",
          "type": "bool"
        }
      ],
      "stateMutability": "view",
      "type": "function"
    },
    {
      "inputs": [
        {
          "internalType": "address",
          "name": "",
          "type": "address"
        },
        {
          "internalType": "uint256",
          "name": "",
          "type": "uint256"
        }
      ],
      "name": "studentClasses",
      "outputs": [
        {
          "internalType": "string",
          "name": "",
          "type": "string"
        }
      ],
      "stateMutability": "view",
      "type": "function"
    },
    {
      "inputs": [
        {
          "internalType": "address",
          "name": "",
          "type": "address"
        },
        {
          "internalType": "uint256",
          "name": "",
          "type": "uint256"
        }
      ],
      "name": "teacherClasses",
      "outputs": [
        {
          "internalType": "string",
          "name": "",
          "type": "string"
        }
      ],
      "stateMutability": "view",
      "type": "function"
    },
    {
      "inputs": [
        {
          "internalType": "string",
          "name": "_uniqueCode",
          "type": "string"
        },
        {
          "internalType": "string",
          "name": "_attendanceCode",
          "type": "string"
        }
      ],
      "name": "updateAttendanceCode",
      "outputs": [],
      "stateMutability": "nonpayable",
      "type": "function"
    }
  ],
  "bytecode": "0x6080604052348015600e575f5ffd5b506040516121fe3803806121fe833981016040819052602b91604e565b5f80546001600160a01b0319166001600160a01b03929092169190911790556079565b5f60208284031215605d575f5ffd5b81516001600160a01b03811681146072575f5ffd5b9392505050565b612178806100865f395ff3fe608060405234801561000f575f5ffd5b506004361061013d575f3560e01c80639ba2c41b116100b4578063d38be04311610079578063d38be04314610397578063d61b9ac2146103aa578063df291c75146103bd578063e14f2c30146103e0578063f4b89ff6146103f3578063f4e5ca0214610406575f5ffd5b80639ba2c41b146102f6578063a9b5e2ea14610309578063ae31a87714610333578063bc70824e14610359578063bf2b59f114610384575f5ffd5b80634747aecd116101055780634747aecd146102255780634fd6a0e91461024557806350318ade146102695780636d8110df146102a25780636ed384ec146102b55780639aebe252146102e3575f5ffd5b806306593dbd1461014157806314c6b1251461014b57806322038997146101965780632ed25620146101c8578063306985d714610205575b5f5ffd5b610149610419565b005b61017c610159366004611887565b805160208183018101805160068252928201919093012091525463ffffffff1681565b60405163ffffffff90911681526020015b60405180910390f35b6101b86101a43660046118db565b60016020525f908152604090205460ff1681565b604051901515815260200161018d565b6101b86101d63660046118fb565b8151602081840181018051600a825292820194820194909420919093529091525f908152604090205460ff1681565b6102186102133660046118db565b6104cd565b60405161018d9190611973565b610238610233366004611887565b6105b7565b60405161018d91906119d6565b610258610253366004611887565b61065a565b60405161018d9594939291906119e8565b610294610277366004611887565b805160208183018101805160078252928201919093012091525481565b60405190815260200161018d565b6101b86102b03660046118fb565b6107a0565b6101b86102c3366004611887565b805160208183018101805160088252928201919093012091525460ff1681565b6101496102f1366004611a25565b6107e7565b610149610304366004611ac9565b610aed565b5f5461031b906001600160a01b031681565b6040516001600160a01b03909116815260200161018d565b610346610341366004611887565b610c4e565b60405161018d9796959493929190611b2c565b610294610367366004611887565b805160208183018101805160058252928201919093012091525481565b610238610392366004611b96565b610e3c565b6101496103a5366004611bbe565b610e6e565b6102386103b8366004611b96565b611155565b6103d06103cb366004611887565b61116e565b60405161018d9493929190611c4d565b6101496103ee366004611c86565b611254565b610149610401366004611ac9565b6113da565b6102186104143660046118db565b611668565b335f9081526001602052604090205460ff161561047d5760405162461bcd60e51b815260206004820152601d60248201527f416c72656164792072656769737465726564206173207465616368657200000060448201526064015b60405180910390fd5b335f81815260016020818152604092839020805460ff191690921790915590519182527fde256622a68c110b10d2bfa4a983d8c309a49b3f1c1e5af8c8dc50209835cc61910160405180910390a1565b6001600160a01b0381165f908152600460209081526040808320805482518185028101850190935280835260609492939192909184015b828210156105ac578382905f5260205f2001805461052190611cf2565b80601f016020809104026020016040519081016040528092919081815260200182805461054d90611cf2565b80156105985780601f1061056f57610100808354040283529160200191610598565b820191905f5260205f20905b81548152906001019060200180831161057b57829003601f168201915b505050505081526020019060010190610504565b505050509050919050565b8051602081830181018051600982529282019190930120915280546105db90611cf2565b80601f016020809104026020016040519081016040528092919081815260200182805461060790611cf2565b80156106525780601f1061062957610100808354040283529160200191610652565b820191905f5260205f20905b81548152906001019060200180831161063557829003601f168201915b505050505081565b5f5f5f5f60606005866040516106709190611d41565b90815260200160405180910390205460068760405161068f9190611d41565b9081526040519081900360200181205463ffffffff16906007906106b4908a90611d41565b9081526020016040518091039020546008896040516106d39190611d41565b9081526040519081900360200181205460ff16906009906106f5908c90611d41565b908152602001604051809103902080805461070f90611cf2565b80601f016020809104026020016040519081016040528092919081815260200182805461073b90611cf2565b80156107865780601f1061075d57610100808354040283529160200191610786565b820191905f5260205f20905b81548152906001019060200180831161076957829003601f168201915b505050505090509450945094509450945091939590929450565b5f6002836040516107b19190611d41565b90815260408051602092819003830190206001600160a01b0385165f908152600590910190925290205460ff1690505b92915050565b6008846040516107f79190611d41565b9081526040519081900360200190205460ff166108465760405162461bcd60e51b815260206004820152600d60248201526c139bdd08199a5b985b1a5e9959609a1b6044820152606401610474565b6001600160a01b03831633146108905760405162461bcd60e51b815260206004820152600f60248201526e4f6e6c792073656c662d636c61696d60881b6044820152606401610474565b600a846040516108a09190611d41565b90815260408051602092819003830190206001600160a01b0386165f908152925290205460ff16156109065760405162461bcd60e51b815260206004820152600f60248201526e105b1c9958591e4818db185a5b5959608a1b6044820152606401610474565b5f4630868660405160200161091e9493929190611d4c565b6040516020818303038152906040528051906020012090506109918383808060200260200160405190810160405280939291908181526020018383602002808284375f92019190915250506040516005925061097c91508990611d41565b90815260200160405180910390205483611747565b6109cd5760405162461bcd60e51b815260206004820152600d60248201526c24b73b30b634b210383937b7b360991b6044820152606401610474565b6001600a866040516109df9190611d41565b90815260408051602092819003830181206001600160a01b0389165f9081529352908220805460ff19169315159390931790925590600290610a22908890611d41565b9081526040519081900360200181205f5460018201546303c07e3760e21b84529193506001600160a01b0390811692630f01f8dc92610a6b928a92879290911690600401611d98565b6020604051808303815f875af1158015610a87573d5f5f3e3d5ffd5b505050506040513d601f19601f82011682018060405250810190610aab9190611e3e565b507fddc2463a16ab9b96d078534745f6f71812635a622d6f66cc91089de0400c94d28686604051610add929190611e55565b60405180910390a1505050505050565b335f9081526001602052604090205460ff16610b1b5760405162461bcd60e51b815260040161047490611e7e565b336001600160a01b0316600283604051610b359190611d41565b908152604051908190036020019020600101546001600160a01b031614610b965760405162461bcd60e51b81526020600482015260156024820152742737ba103a34329031b630b9b9903a32b0b1b432b960591b6044820152606401610474565b600282604051610ba69190611d41565b9081526040519081900360200190206004015460ff16610bd85760405162461bcd60e51b815260040161047490611eb5565b5f600283604051610be99190611d41565b908152604051908190036020019020905060068101610c088382611f2e565b504260078201556040517f14ccbe4efa365c06775a7028643cc3b5b8275ac74a49b26712929fd82bcceba790610c419085908590611fe8565b60405180910390a1505050565b8051602081830181018051600282529282019190930120915280548190610c7490611cf2565b80601f0160208091040260200160405190810160405280929190818152602001828054610ca090611cf2565b8015610ceb5780601f10610cc257610100808354040283529160200191610ceb565b820191905f5260205f20905b815481529060010190602001808311610cce57829003601f168201915b505050600184015460028501805494956001600160a01b03909216949193509150610d1590611cf2565b80601f0160208091040260200160405190810160405280929190818152602001828054610d4190611cf2565b8015610d8c5780601f10610d6357610100808354040283529160200191610d8c565b820191905f5260205f20905b815481529060010190602001808311610d6f57829003601f168201915b50505050600383015460048401546006850180549495929460ff909216935090610db590611cf2565b80601f0160208091040260200160405190810160405280929190818152602001828054610de190611cf2565b8015610e2c5780601f10610e0357610100808354040283529160200191610e2c565b820191905f5260205f20905b815481529060010190602001808311610e0f57829003601f168201915b5050505050908060070154905087565b6004602052815f5260405f208181548110610e55575f80fd5b905f5260205f20015f915091505080546105db90611cf2565b335f9081526001602052604090205460ff16610e9c5760405162461bcd60e51b815260040161047490611e7e565b336001600160a01b0316600286604051610eb69190611d41565b908152604051908190036020019020600101546001600160a01b031614610f175760405162461bcd60e51b81526020600482015260156024820152742737ba103a34329031b630b9b9903a32b0b1b432b960591b6044820152606401610474565b600285604051610f279190611d41565b9081526040519081900360200190206004015460ff16610f595760405162461bcd60e51b815260040161047490611eb5565b600885604051610f699190611d41565b9081526040519081900360200190205460ff1615610fbd5760405162461bcd60e51b8152602060048201526011602482015270105b1c9958591e48199a5b985b1a5e9959607a1b6044820152606401610474565b80515f03610ffc5760405162461bcd60e51b815260206004820152600c60248201526b10d251081c995c5d5a5c995960a21b6044820152606401610474565b8360058660405161100d9190611d41565b908152602001604051809103902081905550826006866040516110309190611d41565b90815260200160405180910390205f6101000a81548163ffffffff021916908363ffffffff1602179055508160078660405161106c9190611d41565b90815260200160405180910390208190555060016008866040516110909190611d41565b908152604051908190036020018120805492151560ff199093169290921790915581906009906110c1908890611d41565b908152602001604051809103902090816110db9190611f2e565b505f6002866040516110ed9190611d41565b908152604051908190036020018120600401805492151560ff19909316929092179091557f09b4180f084765698e65f7094382805c1aaefdc3ec94cd3756009511ec93b43d906111469087908790879087908790612015565b60405180910390a15050505050565b6003602052815f5260405f208181548110610e55575f80fd5b60605f5f5f5f6002866040516111849190611d41565b908152604051908190036020019020600181015460038201546004830154835493945084936001600160a01b039093169260ff9091169084906111c690611cf2565b80601f01602080910402602001604051908101604052809291908181526020018280546111f290611cf2565b801561123d5780601f106112145761010080835404028352916020019161123d565b820191905f5260205f20905b81548152906001019060200180831161122057829003601f168201915b505050505093509450945094509450509193509193565b335f9081526001602052604090205460ff166112825760405162461bcd60e51b815260040161047490611e7e565b5f6001600160a01b031660028360405161129c9190611d41565b908152604051908190036020019020600101546001600160a01b0316146113055760405162461bcd60e51b815260206004820152601960248201527f436c61737320636f646520616c726561647920657869737473000000000000006044820152606401610474565b5f6002836040516113169190611d41565b9081526040519081900360200190209050806113328582611f2e565b506001810180546001600160a01b03191633179055600281016113558482611f2e565b50600380820183905560048201805460ff19166001908117909155335f90815260209283526040812080549283018155815291909120016113968482611f2e565b507f7b634df0ecd96360711ccf66ef8bdf4bd5906dbd87f9ad758cdcf4cfbf343c63838533856040516113cc949392919061205d565b60405180910390a150505050565b5f6002836040516113eb9190611d41565b908152604051908190036020019020600481015490915060ff166114215760405162461bcd60e51b815260040161047490611eb5565b335f90815260058201602052604090205460ff16156114825760405162461bcd60e51b815260206004820152601960248201527f416c7265616479206d61726b656420617474656e64616e6365000000000000006044820152606401610474565b816040516020016114939190611d41565b60405160208183030381529060405280519060200120816006016040516020016114bd919061209e565b60405160208183030381529060405280519060200120146115205760405162461bcd60e51b815260206004820152601760248201527f496e76616c696420617474656e64616e636520636f64650000000000000000006044820152606401610474565b600781015461153090600561210f565b42111561157f5760405162461bcd60e51b815260206004820152601760248201527f417474656e64616e636520636f646520657870697265640000000000000000006044820152606401610474565b335f9081526005820160209081526040808320805460ff19166001908117909155600483529083208054918201815583529120016115bd8482611f2e565b505f5460018201546040516303c07e3760e21b81526001600160a01b0392831692630f01f8dc926115f692339287921690600401611d98565b6020604051808303815f875af1158015611612573d5f5f3e3d5ffd5b505050506040513d601f19601f820116820180604052508101906116369190611e3e565b507ff61279d32de058f920395078b0092668c28e05bd1efe61fe60f7ec9ddce118908333604051610c41929190611e55565b6001600160a01b0381165f908152600360209081526040808320805482518185028101850190935280835260609492939192909184015b828210156105ac578382905f5260205f200180546116bc90611cf2565b80601f01602080910402602001604051908101604052809291908181526020018280546116e890611cf2565b80156117335780601f1061170a57610100808354040283529160200191611733565b820191905f5260205f20905b81548152906001019060200180831161171657829003601f168201915b50505050508152602001906001019061169f565b5f81815b85518110156117df575f8682815181106117675761176761212e565b602002602001015190508083116117a95760408051602081018590529081018290526060016040516020818303038152906040528051906020012092506117d6565b60408051602081018390529081018490526060016040516020818303038152906040528051906020012092505b5060010161174b565b509092149392505050565b634e487b7160e01b5f52604160045260245ffd5b5f82601f83011261180d575f5ffd5b81356001600160401b03811115611826576118266117ea565b604051601f8201601f19908116603f011681016001600160401b0381118282101715611854576118546117ea565b60405281815283820160200185101561186b575f5ffd5b816020850160208301375f918101602001919091529392505050565b5f60208284031215611897575f5ffd5b81356001600160401b038111156118ac575f5ffd5b6118b8848285016117fe565b949350505050565b80356001600160a01b03811681146118d6575f5ffd5b919050565b5f602082840312156118eb575f5ffd5b6118f4826118c0565b9392505050565b5f5f6040838503121561190c575f5ffd5b82356001600160401b03811115611921575f5ffd5b61192d858286016117fe565b92505061193c602084016118c0565b90509250929050565b5f81518084528060208401602086015e5f602082860101526020601f19601f83011685010191505092915050565b5f602082016020835280845180835260408501915060408160051b8601019250602086015f5b828110156119ca57603f198786030184526119b5858351611945565b94506020938401939190910190600101611999565b50929695505050505050565b602081525f6118f46020830184611945565b85815263ffffffff85166020820152836040820152821515606082015260a060808201525f611a1a60a0830184611945565b979650505050505050565b5f5f5f5f60608587031215611a38575f5ffd5b84356001600160401b03811115611a4d575f5ffd5b611a59878288016117fe565b945050611a68602086016118c0565b925060408501356001600160401b03811115611a82575f5ffd5b8501601f81018713611a92575f5ffd5b80356001600160401b03811115611aa7575f5ffd5b8760208260051b8401011115611abb575f5ffd5b949793965060200194505050565b5f5f60408385031215611ada575f5ffd5b82356001600160401b03811115611aef575f5ffd5b611afb858286016117fe565b92505060208301356001600160401b03811115611b16575f5ffd5b611b22858286016117fe565b9150509250929050565b60e081525f611b3e60e083018a611945565b6001600160a01b03891660208401528281036040840152611b5f8189611945565b9050866060840152851515608084015282810360a0840152611b818186611945565b9150508260c083015298975050505050505050565b5f5f60408385031215611ba7575f5ffd5b611bb0836118c0565b946020939093013593505050565b5f5f5f5f5f60a08688031215611bd2575f5ffd5b85356001600160401b03811115611be7575f5ffd5b611bf3888289016117fe565b95505060208601359350604086013563ffffffff81168114611c13575f5ffd5b92506060860135915060808601356001600160401b03811115611c34575f5ffd5b611c40888289016117fe565b9150509295509295909350565b608081525f611c5f6080830187611945565b6001600160a01b039590951660208301525060408101929092521515606090910152919050565b5f5f5f60608486031215611c98575f5ffd5b83356001600160401b03811115611cad575f5ffd5b611cb9868287016117fe565b93505060208401356001600160401b03811115611cd4575f5ffd5b611ce0868287016117fe565b93969395505050506040919091013590565b600181811c90821680611d0657607f821691505b602082108103611d2457634e487b7160e01b5f52602260045260245ffd5b50919050565b5f81518060208401855e5f93019283525090919050565b5f6118f48284611d2a565b8481526bffffffffffffffffffffffff198460601b1660208201525f611d756034830185611d2a565b60609390931b6bffffffffffffffffffffffff1916835250506014019392505050565b6001600160a01b03841681526060602082015282545f908190611dba81611cf2565b806060860152600182165f8114611dd85760018114611df457611e25565b60ff1983166080870152608082151560051b8701019350611e25565b875f5260205f205f5b83811015611e1c57815488820160800152600190910190602001611dfd565b87016080019450505b5050506001600160a01b038416604084015290506118b8565b5f60208284031215611e4e575f5ffd5b5051919050565b604081525f611e676040830185611945565b905060018060a01b03831660208301529392505050565b60208082526019908201527f4e6f742072656769737465726564206173207465616368657200000000000000604082015260600190565b602080825260139082015272436c617373206973206e6f742061637469766560681b604082015260600190565b601f821115611f2957805f5260205f20601f840160051c81016020851015611f075750805b601f840160051c820191505b81811015611f26575f8155600101611f13565b50505b505050565b81516001600160401b03811115611f4757611f476117ea565b611f5b81611f558454611cf2565b84611ee2565b6020601f821160018114611f8d575f8315611f765750848201515b5f19600385901b1c1916600184901b178455611f26565b5f84815260208120601f198516915b82811015611fbc5787850151825560209485019460019092019101611f9c565b5084821015611fd957868401515f19600387901b60f8161c191681555b50505050600190811b01905550565b604081525f611ffa6040830185611945565b828103602084015261200c8185611945565b95945050505050565b60a081525f61202760a0830188611945565b86602084015263ffffffff8616604084015284606084015282810360808401526120518185611945565b98975050505050505050565b608081525f61206f6080830187611945565b82810360208401526120818187611945565b6001600160a01b0395909516604084015250506060015292915050565b5f5f83546120ab81611cf2565b6001821680156120c257600181146120d757612104565b60ff1983168652811515820286019350612104565b865f5260205f205f5b838110156120fc578154888201526001909101906020016120e0565b505081860193505b509195945050505050565b808201808211156107e157634e487b7160e01b5f52601160045260245ffd5b634e487b7160e01b5f52603260045260245ffdfea2646970667358221220e20230690e4372518758ee351bbc4fef64def1b9785ca0235afaff109efea43b64736f6c634300081c0033",
  "linkReferences": {},
  "deployedLinkReferences": {},
  "immutableReferences": {},
  "inputSourceName": "project/contracts/AttendanceSystem.sol",
  "buildInfoId": "solc-0_8_28-0b28e8925cdab50d33ed9c5c597adfbfe6f05822"
}