{
  "_format": "hh3-artifact-1",
  "contractName": "AttendanceToken",
  "sourceName": "contracts/AttendanceToken.sol",
  "abi": [
    {
      "inputs": [],
      "stateMutability": "nonpayable",
      "type": "constructor"
    },
    {
      "inputs": [
        {
          "internalType": "address",
          "name": "sender",
          "type": "address"
        },
        {
          "internalType": "uint256",
          "name": "tokenId",
          "type": "uint256"
        },
        {
          "internalType": "address",
          "name": "owner",
          "type": "address"
        }
      ],
      "name": "ERC721IncorrectOwner",
      "type": "error"
    },
    {
      "inputs": [
        {
          "internalType": "address",
          "name": "operator",
          "type": "address"
        },
        {
          "internalType": "uint256",
          "name": "tokenId",
          "type": "uint256"
        }
      ],
      "name": "ERC721InsufficientApproval",
      "type": "error"
    },
    {
      "inputs": [
        {
          "internalType": "address",
          "name": "approver",
          "type": "address"
        }
      ],
      "name": "ERC721InvalidApprover",
      "type": "error"
    },
    {
      "inputs": [
        {
          "internalType": "address",
          "name": "operator",
          "type": "address"
        }
      ],
      "name": "ERC721InvalidOperator",
      "type": "error"
    },
    {
      "inputs": [
        {
          "internalType": "address",
          "name": "owner",
          "type": "address"
        }
      ],
      "name": "ERC721InvalidOwner",
      "type": "error"
    },
    {
      "inputs": [
        {
          "internalType": "address",
          "name": "receiver",
          "type": "address"
        }
      ],
      "name": "ERC721InvalidReceiver",
      "type": "error"
    },
    {
      "inputs": [
        {
          "internalType": "address",
          "name": "sender",
          "type": "address"
        }
      ],
      "name": "ERC721InvalidSender",
      "type": "error"
    },
    {
      "inputs": [
        {
          "internalType": "uint256",
          "name": "tokenId",
          "type": "uint256"
        }
      ],
      "name": "ERC721NonexistentToken",
      "type": "error"
    },
    {
      "inputs": [
        {
          "internalType": "address",
          "name": "owner",
          "type": "address"
        }
      ],
      "name": "OwnableInvalidOwner",
      "type": "error"
    },
    {
      "inputs": [
        {
          "internalType": "address",
          "name": "account",
          "type": "address"
        }
      ],
      "name": "OwnableUnauthorizedAccount",
      "type": "error"
    },
    {
      "anonymous": false,
      "inputs": [
        {
          "indexed": true,
          "internalType": "address",
          "name": "owner",
          "type": "address"
        },
        {
          "indexed": true,
          "internalType": "address",
          "name": "approved",
          "type": "address"
        },
        {
          "indexed": true,
          "internalType": "uint256",
          "name": "tokenId",
          "type": "uint256"
        }
      ],
      "name": "Approval",
      "type": "event"
    },
    {
      "anonymous": false,
      "inputs": [
        {
          "indexed": true,
          "internalType": "address",
          "name": "owner",
          "type": "address"
        },
        {
          "indexed": true,
          "internalType": "address",
          "name": "operator",
          "type": "address"
        },
        {
          "indexed": false,
          "internalType": "bool",
          "name": "approved",
          "type": "bool"
        }
      ],
      "name": "ApprovalForAll",
      "type": "event"
    },
    {
      "anonymous": false,
      "inputs": [
        {
          "indexed": true,
          "internalType": "address",
          "name": "previousOwner",
          "type": "address"
        },
        {
          "indexed": true,
          "internalType": "address",
          "name": "newOwner",
          "type": "address"
        }
      ],
      "name": "OwnershipTransferred",
      "type": "event"
    },
    {
      "anonymous": false,
      "inputs": [
        {
          "indexed": true,
          "internalType": "address",
          "name": "from",
          "type": "address"
        },
        {
          "indexed": true,
          "internalType": "address",
          "name": "to",
          "type": "address"
        },
        {
          "indexed": true,
          "internalType": "uint256",
          "name": "tokenId",
          "type": "uint256"
        }
      ],
      "name": "Transfer",
      "type": "event"
    },
    {
      "inputs": [
        {
          "internalType": "address",
          "name": "to",
          "type": "address"
        },
        {
          "internalType": "uint256",
          "name": "tokenId",
          "type": "uint256"
        }
      ],
      "name": "approve",
      "outputs": [],
      "stateMutability": "nonpayable",
      "type": "function"
    },
    {
      "inputs": [
        {
          "internalType": "uint256",
          "name": "",
          "type": "uint256"
        }
      ],
      "name": "attendanceRecords",
      "outputs": [
        {
          "internalType": "string",
          "name": "className",
          "type": "string"
        },
        {
          "internalType": "uint256",
          "name": "date",
          "type": "uint256"
        },
        {
          "internalType": "address",
          "name": "teacher",
          "type": "address"
        }
      ],
      "stateMutability": "view",
      "type": "function"
    },
    {
      "inputs": [
        {
          "internalType": "address",
          "name": "owner",
          "type": "address"
        }
      ],
      "name": "balanceOf",
      "outputs": [
        {
          "internalType": "uint256",
          "name": "",
          "type": "uint256"
        }
      ],
      "stateMutability": "view",
      "type": "function"
    },
    {
      "inputs": [
        {
          "internalType": "uint256",
          "name": "tokenId",
          "type": "uint256"
        }
      ],
      "name": "getApproved",
      "outputs": [
        {
          "internalType": "address",
          "name": "",
          "type": "address"
        }
      ],
      "stateMutability": "view",
      "type": "function"
    },
    {
      "inputs": [
        {
          "internalType": "uint256",
          "name": "tokenId",
          "type": "uint256"
        }
      ],
      "name": "getAttendanceDetails",
      "outputs": [
        {
          "internalType": "string",
          "name": "className",
          "type": "string"
        },
        {
          "internalType": "uint256",
          "name": "date",
          "type": "uint256"
        },
        {
          "internalType": "address",
          "name": "teacher",
          "type": "address"
        }
      ],
      "stateMutability": "view",
      "type": "function"
    },
    {
      "inputs": [
        {
          "internalType": "address",
          "name": "owner",
          "type": "address"
        },
        {
          "internalType": "address",
          "name": "operator",
          "type": "address"
        }
      ],
      "name": "isApprovedForAll",
      "outputs": [
        {
          "internalType": "bool",
          "name": "",
          "type": "bool"
        }
      ],
      "stateMutability": "view",
      "type": "function"
    },
    {
      "inputs": [
        {
          "internalType": "address",
          "name": "to",
          "type": "address"
        },
        {
          "internalType": "string",
          "name": "className",
          "type": "string"
        },
        {
          "internalType": "address",
          "name": "teacher",
          "type": "address"
        }
      ],
      "name": "mintAttendance",
      "outputs": [
        {
          "internalType": "uint256",
          "name": "",
          "type": "uint256"
        }
      ],
      "stateMutability": "nonpayable",
      "type": "function"
    },
    {
      "inputs": [],
      "name": "minter",
      "outputs": [
        {
          "internalType": "address",
          "name": "",
          "type": "address"
        }
      ],
      "stateMutability": "view",
      "type": "function"
    },
    {
      "inputs": [],
      "name": "name",
      "outputs": [
        {
          "internalType": "string",
          "name": "",
          "type": "string"
        }
      ],
      "stateMutability": "view",
      "type": "function"
    },
    {
      "inputs": [],
      "name": "owner",
      "outputs": [
        {
          "internalType": "address",
          "name": "",
          "type": "address"
        }
      ],
      "stateMutability": "view",
      "type": "function"
    },
    {
      "inputs": [
        {
          "internalType": "uint256",
          "name": "tokenId",
          "type": "uint256"
        }
      ],
      "name": "ownerOf",
      "outputs": [
        {
          "internalType": "address",
          "name": "",
          "type": "address"
        }
      ],
      "stateMutability": "view",
      "type": "function"
    },
    {
      "inputs": [],
      "name": "renounceOwnership",
      "outputs": [],
      "stateMutability": "nonpayable",
      "type": "function"
    },
    {
      "inputs": [
        {
          "internalType": "address",
          "name": "from",
          "type": "address"
        },
        {
          "internalType": "address",
          "name": "to",
          "type": "address"
        },
        {
          "internalType": "uint256",
          "name": "tokenId",
          "type": "uint256"
        }
      ],
      "name": "safeTransferFrom",
      "outputs": [],
      "stateMutability": "nonpayable",
      "type": "function"
    },
    {
      "inputs": [
        {
          "internalType": "address",
          "name": "from",
          "type": "address"
        },
        {
          "internalType": "address",
          "name": "to",
          "type": "address"
        },
        {
          "internalType": "uint256",
          "name": "tokenId",
          "type": "uint256"
        },
        {
          "internalType": "bytes",
          "name": "data",
          "type": "bytes"
        }
      ],
      "name": "safeTransferFrom",
      "outputs": [],
      "stateMutability": "nonpayable",
      "type": "function"
    },
    {
      "inputs": [
        {
          "internalType": "address",
          "name": "operator",
          "type": "address"
        },
        {
          "internalType": "bool",
          "name": "approved",
          "type": "bool"
        }
      ],
      "name": "setApprovalForAll",
      "outputs": [],
      "stateMutability": "nonpayable",
      "type": "function"
    },
    {
      "inputs": [
        {
          "internalType": "address",
          "name": "_minter",
          "type": "address"
        }
      ],
      "name": "setMinter",
      "outputs": [],
      "stateMutability": "nonpayable",
      "type": "function"
    },
    {
      "inputs": [
        {
          "internalType": "bytes4",
          "name": "interfaceId",
          "type": "bytes4"
        }
      ],
      "name": "supportsInterface",
      "outputs": [
        {
          "internalType": "bool",
          "name": "",
          "type": "bool"
        }
      ],
      "stateMutability": "view",
      "type": "function"
    },
    {
      "inputs": [],
      "name": "symbol",
      "outputs": [
        {
          "internalType": "string",
          "name": "",
          "type": "string"
        }
      ],
      "stateMutability": "view",
      "type": "function"
    },
    {
      "inputs": [
        {
          "internalType": "uint256",
          "name": "tokenId",
          "type": "uint256"
        }
      ],
      "name": "tokenURI",
      "outputs": [
        {
          "internalType": "string",
          "name": "",
          "type": "string"
        }
      ],
      "stateMutability": "view",
      "type": "function"
    },
    {
      "inputs": [
        {
          "internalType": "address",
          "name": "from",
          "type": "address"
        },
        {
          "internalType": "address",
          "name": "to",
          "type": "address"
        },
        {
          "internalType": "uint256",
          "name": "tokenId",
          "type": "uint256"
        }
      ],
      "name": "transferFrom",
      "outputs": [],
      "stateMutability": "nonpayable",
      "type": "function"
    },
    {
      "inputs": [
        {
          "internalType": "address",
          "name": "newOwner",
          "type": "address"
        }
      ],
      "name": "transferOwnership",
      "outputs": [],
      "stateMutability": "nonpayable",
      "type": "function"
    }
  ],
  "bytecode": "0x608060405234801561000f575f5ffd5b50336040518060400160405280601581526020017f417474656e64616e63652043726564656e7469616c00000000000000000000008152506040518060400160405280600681526020016510551511539160d21b815250815f908161007491906101a9565b50600161008182826101a9565b5050506001600160a01b0381166100b157604051631e4fbdf760e01b81525f600482015260240160405180910390fd5b6100ba816100c0565b50610263565b600680546001600160a01b038381166001600160a01b0319831681179093556040519116919082907f8be0079c531659141344cd1fd0a4f28419497f9722a3daafe3b4186f6b6457e0905f90a35050565b634e487b7160e01b5f52604160045260245ffd5b600181811c9082168061013957607f821691505b60208210810361015757634e487b7160e01b5f52602260045260245ffd5b50919050565b601f8211156101a457805f5260205f20601f840160051c810160208510156101825750805b601f840160051c820191505b818110156101a1575f815560010161018e565b50505b505050565b81516001600160401b038111156101c2576101c2610111565b6101d6816101d08454610125565b8461015d565b6020601f821160018114610208575f83156101f15750848201515b5f19600385901b1c1916600184901b1784556101a1565b5f84815260208120601f198516915b828110156102375787850151825560209485019460019092019101610217565b508482101561025457868401515f19600387901b60f8161c191681555b50505050600190811b01905550565b6114ff806102705f395ff3fe608060405234801561000f575f5ffd5b5060043610610132575f3560e01c806370a08231116100b4578063b76c08bd11610079578063b76c08bd14610284578063b88d4fde14610297578063c87b56dd146102a5578063e985e9c5146102b8578063f2fde38b146102cb578063fca3b5aa146102de575f5ffd5b806370a0823114610242578063715018a6146102555780638da5cb5b1461025d57806395d89b411461026e578063a22cb46514610276575f5ffd5b80630f01f8dc116100fa5780630f01f8dc146101c657806323b872dd146101e757806342842e0e146101fa5780635763c1841461020d5780636352211e1461022f575f5ffd5b806301ffc9a71461013657806306fdde031461015e5780630754617214610173578063081812fc1461019e578063095ea7b3146101b1575b5f5ffd5b610149610144366004610fd9565b6102f1565b60405190151581526020015b60405180910390f35b610166610342565b6040516101559190611022565b600854610186906001600160a01b031681565b6040516001600160a01b039091168152602001610155565b6101866101ac366004611034565b6103d1565b6101c46101bf366004611066565b6103f8565b005b6101d96101d4366004611119565b61044f565b604051908152602001610155565b6101c46101f5366004611186565b610546565b6101c4610208366004611186565b610598565b61022061021b366004611034565b6105b7565b604051610155939291906111c0565b61018661023d366004611034565b610668565b6101d96102503660046111f2565b610672565b6101c46106b7565b6006546001600160a01b0316610186565b6101666106ca565b6101c46101bf36600461120b565b610220610292366004611034565b6106d9565b6101c46101f5366004611244565b6101666102b3366004611034565b610827565b6101496102c63660046112bb565b610898565b6101c46102d93660046111f2565b6108c5565b6101c46102ec3660046111f2565b610902565b5f6001600160e01b031982166380ac58cd60e01b148061032157506001600160e01b03198216635b5e139f60e01b145b8061033c57506301ffc9a760e01b6001600160e01b03198316145b92915050565b60605f8054610350906112ec565b80601f016020809104026020016040519081016040528092919081815260200182805461037c906112ec565b80156103c75780601f1061039e576101008083540402835291602001916103c7565b820191905f5260205f20905b8154815290600101906020018083116103aa57829003601f168201915b5050505050905090565b5f6103db8261092c565b505f828152600460205260409020546001600160a01b031661033c565b60405162461bcd60e51b815260206004820152602160248201527f546f6b656e20697320536f756c626f756e64202d206e6f20617070726f76616c6044820152607360f81b60648201526084015b60405180910390fd5b6008545f906001600160a01b031633146104ab5760405162461bcd60e51b815260206004820152601f60248201527f4f6e6c79206d696e7465722063616e206d696e7420617474656e64616e6365006044820152606401610446565b600780545f91826104bb83611324565b9190505590506104cb8582610964565b60408051606081018252858152426020808301919091526001600160a01b038616828401525f8481526009909152919091208151819061050b908261138c565b5060208201516001820155604090910151600290910180546001600160a01b0319166001600160a01b03909216919091179055949350505050565b60405162461bcd60e51b815260206004820152602160248201527f546f6b656e20697320536f756c626f756e64202d206e6f207472616e736665726044820152607360f81b6064820152608401610446565b6105b283838360405180602001604052805f815250610546565b505050565b60096020525f90815260409020805481906105d1906112ec565b80601f01602080910402602001604051908101604052809291908181526020018280546105fd906112ec565b80156106485780601f1061061f57610100808354040283529160200191610648565b820191905f5260205f20905b81548152906001019060200180831161062b57829003601f168201915b5050505060018301546002909301549192916001600160a01b0316905083565b5f61033c8261092c565b5f6001600160a01b03821661069c576040516322718ad960e21b81525f6004820152602401610446565b506001600160a01b03165f9081526003602052604090205490565b6106bf610981565b6106c85f6109ae565b565b606060018054610350906112ec565b60605f80806106fc855f908152600260205260409020546001600160a01b031690565b6001600160a01b0316036107495760405162461bcd60e51b8152602060048201526014602482015273151bdad95b88191bd95cc81b9bdd08195e1a5cdd60621b6044820152606401610446565b5f8481526009602052604080822081516060810190925280548290829061076f906112ec565b80601f016020809104026020016040519081016040528092919081815260200182805461079b906112ec565b80156107e65780601f106107bd576101008083540402835291602001916107e6565b820191905f5260205f20905b8154815290600101906020018083116107c957829003601f168201915b505050918352505060018201546020808301919091526002909201546001600160a01b03166040918201528251918301519201519097919650945092505050565b60606108328261092c565b505f61084860408051602081019091525f815290565b90505f8151116108665760405180602001604052805f815250610891565b80610870846109ff565b60405160200161088192919061145e565b6040516020818303038152906040525b9392505050565b6001600160a01b039182165f90815260056020908152604080832093909416825291909152205460ff1690565b6108cd610981565b6001600160a01b0381166108f657604051631e4fbdf760e01b81525f6004820152602401610446565b6108ff816109ae565b50565b61090a610981565b600880546001600160a01b0319166001600160a01b0392909216919091179055565b5f818152600260205260408120546001600160a01b03168061033c57604051637e27328960e01b815260048101849052602401610446565b61097d828260405180602001604052805f815250610a8f565b5050565b6006546001600160a01b031633146106c85760405163118cdaa760e01b8152336004820152602401610446565b600680546001600160a01b038381166001600160a01b0319831681179093556040519116919082907f8be0079c531659141344cd1fd0a4f28419497f9722a3daafe3b4186f6b6457e0905f90a35050565b60605f610a0b83610aa6565b60010190505f8167ffffffffffffffff811115610a2a57610a2a61108e565b6040519080825280601f01601f191660200182016040528015610a54576020820181803683370190505b5090508181016020015b5f19016f181899199a1a9b1b9c1cb0b131b232b360811b600a86061a8153600a8504945084610a5e57509392505050565b610a998383610b7d565b6105b2335f858585610bde565b5f8072184f03e93ff9f4daa797ed6e38ed64bf6a1f0160401b8310610ae45772184f03e93ff9f4daa797ed6e38ed64bf6a1f0160401b830492506040015b6d04ee2d6d415b85acef81000000008310610b10576d04ee2d6d415b85acef8100000000830492506020015b662386f26fc100008310610b2e57662386f26fc10000830492506010015b6305f5e1008310610b46576305f5e100830492506008015b6127108310610b5a57612710830492506004015b60648310610b6c576064830492506002015b600a831061033c5760010192915050565b6001600160a01b038216610ba657604051633250574960e11b81525f6004820152602401610446565b5f610bb283835f610d06565b90506001600160a01b038116156105b2576040516339e3563760e11b81525f6004820152602401610446565b6001600160a01b0383163b15610cff57604051630a85bd0160e11b81526001600160a01b0384169063150b7a0290610c20908890889087908790600401611472565b6020604051808303815f875af1925050508015610c5a575060408051601f3d908101601f19168201909252610c57918101906114ae565b60015b610cc1573d808015610c87576040519150601f19603f3d011682016040523d82523d5f602084013e610c8c565b606091505b5080515f03610cb957604051633250574960e11b81526001600160a01b0385166004820152602401610446565b805160208201fd5b6001600160e01b03198116630a85bd0160e11b14610cfd57604051633250574960e11b81526001600160a01b0385166004820152602401610446565b505b5050505050565b5f828152600260205260408120546001600160a01b0390811690831615610d3257610d32818486610df8565b6001600160a01b03811615610d6c57610d4d5f855f5f610e5c565b6001600160a01b0381165f90815260036020526040902080545f190190555b6001600160a01b03851615610d9a576001600160a01b0385165f908152600360205260409020805460010190555b5f8481526002602052604080822080546001600160a01b0319166001600160a01b0389811691821790925591518793918516917fddf252ad1be2c89b69c2b068fc378daa952ba7f163c4a11628f55a4df523b3ef91a4949350505050565b610e03838383610f60565b6105b2576001600160a01b038316610e3157604051637e27328960e01b815260048101829052602401610446565b60405163177e802f60e01b81526001600160a01b038316600482015260248101829052604401610446565b8080610e7057506001600160a01b03821615155b15610f31575f610e7f8461092c565b90506001600160a01b03831615801590610eab5750826001600160a01b0316816001600160a01b031614155b8015610ebe5750610ebc8184610898565b155b15610ee75760405163a9fbf51f60e01b81526001600160a01b0384166004820152602401610446565b8115610f2f5783856001600160a01b0316826001600160a01b03167f8c5be1e5ebec7d5bd14f71427d1e84f3dd0314c0f7b2291e5b200ac8c7c3b92560405160405180910390a45b505b50505f90815260046020526040902080546001600160a01b0319166001600160a01b0392909216919091179055565b5f6001600160a01b03831615801590610fbc5750826001600160a01b0316846001600160a01b03161480610f995750610f998484610898565b80610fbc57505f828152600460205260409020546001600160a01b038481169116145b949350505050565b6001600160e01b0319811681146108ff575f5ffd5b5f60208284031215610fe9575f5ffd5b813561089181610fc4565b5f81518084528060208401602086015e5f602082860101526020601f19601f83011685010191505092915050565b602081525f6108916020830184610ff4565b5f60208284031215611044575f5ffd5b5035919050565b80356001600160a01b0381168114611061575f5ffd5b919050565b5f5f60408385031215611077575f5ffd5b6110808361104b565b946020939093013593505050565b634e487b7160e01b5f52604160045260245ffd5b5f5f67ffffffffffffffff8411156110bc576110bc61108e565b50604051601f19601f85018116603f0116810181811067ffffffffffffffff821117156110eb576110eb61108e565b604052838152905080828401851015611102575f5ffd5b838360208301375f60208583010152509392505050565b5f5f5f6060848603121561112b575f5ffd5b6111348461104b565b9250602084013567ffffffffffffffff81111561114f575f5ffd5b8401601f8101861361115f575f5ffd5b61116e868235602084016110a2565b92505061117d6040850161104b565b90509250925092565b5f5f5f60608486031215611198575f5ffd5b6111a18461104b565b92506111af6020850161104b565b929592945050506040919091013590565b606081525f6111d26060830186610ff4565b6020830194909452506001600160a01b0391909116604090910152919050565b5f60208284031215611202575f5ffd5b6108918261104b565b5f5f6040838503121561121c575f5ffd5b6112258361104b565b915060208301358015158114611239575f5ffd5b809150509250929050565b5f5f5f5f60808587031215611257575f5ffd5b6112608561104b565b935061126e6020860161104b565b925060408501359150606085013567ffffffffffffffff811115611290575f5ffd5b8501601f810187136112a0575f5ffd5b6112af878235602084016110a2565b91505092959194509250565b5f5f604083850312156112cc575f5ffd5b6112d58361104b565b91506112e36020840161104b565b90509250929050565b600181811c9082168061130057607f821691505b60208210810361131e57634e487b7160e01b5f52602260045260245ffd5b50919050565b5f6001820161134157634e487b7160e01b5f52601160045260245ffd5b5060010190565b601f8211156105b257805f5260205f20601f840160051c8101602085101561136d5750805b601f840160051c820191505b81811015610cff575f8155600101611379565b815167ffffffffffffffff8111156113a6576113a661108e565b6113ba816113b484546112ec565b84611348565b6020601f8211600181146113ec575f83156113d55750848201515b5f19600385901b1c1916600184901b178455610cff565b5f84815260208120601f198516915b8281101561141b57878501518255602094850194600190920191016113fb565b508482101561143857868401515f19600387901b60f8161c191681555b50505050600190811b01905550565b5f81518060208401855e5f93019283525090919050565b5f610fbc61146c8386611447565b84611447565b6001600160a01b03858116825284166020820152604081018390526080606082018190525f906114a490830184610ff4565b9695505050505050565b5f602082840312156114be575f5ffd5b815161089181610fc456fea2646970667358221220effc63e70c2284600df12890d6f29970a700a16588d4e6f5805e6f11ab74280d64736f6c634300081c0033",
  "linkReferences": {},
  "deployedLinkReferences": {},
  "immutableReferences": {},
  "inputSourceName": "project/contracts/AttendanceToken.sol",
  "buildInfoId": "solc-0_8_28-ceb3093879feba801bf10274998bc9800860991d"
}