{
  "_format": "hh3-artifact-1",
  "contractName": "AttendanceSystem",
  "sourceName": "contracts/AttendanceSystem.sol",
  "abi": [
    {
      "inputs": [
        {
          "internalType": "address",
          "name": "_attendanceTokenAddress",
          "type": "address"
        }
      ],
      "stateMutability": "nonpayable",
      "type": "constructor"
    },
    {
      "anonymous": false,
      "inputs": [
        {
          "indexed": false,
          "internalType": "string",
          "name": "uniqueCode",
          "type": "string"
        },
        {
          "indexed": false,
          "internalType": "string",
          "name": "attendanceCode",
          "type": "string"
        }
      ],
      "name": "AttendanceCodeUpdated",
      "type": "event"
    },
    {
      "anonymous": false,
      "inputs": [
        {
          "indexed": false,
          "internalType": "string",
          "name": "uniqueCode",
          "type": "string"
        },
        {
          "indexed": false,
          "internalType": "address",
          "name": "student",
          "type": "address"
        }
      ],
      "name": "AttendanceMarked",
      "type": "event"
    },
    {
      "anonymous": false,
      "inputs": [
        {
          "indexed": false,
          "internalType": "string",
          "name": "uniqueCode",
          "type": "string"
        },
        {
          "indexed": false,
          "internalType": "address",
          "name": "account",
          "type": "address"
        }
      ],
      "name": "Claimed",
      "type": "event"
    },
    {
      "anonymous": false,
      "inputs": [
        {
          "indexed": false,
          "internalType": "string",
          "name": "uniqueCode",
          "type": "string"
        },
        {
          "indexed": false,
          "internalType": "string",
          "name": "name",
          "type": "string"
        },
        {
          "indexed": false,
          "internalType": "address",
          "name": "teacher",
          "type": "address"
        },
        {
          "indexed": false,
          "internalType": "uint256",
          "name": "date",
          "type": "uint256"
        }
      ],
      "name": "ClassCreated",
      "type": "event"
    },
    {
      "anonymous": false,
      "inputs": [
        {
          "indexed": false,
          "internalType": "string",
          "name": "uniqueCode",
          "type": "string"
        },
        {
          "indexed": false,
          "internalType": "bytes32",
          "name": "root",
          "type": "bytes32"
        },
        {
          "indexed": false,
          "internalType": "uint32",
          "name": "total",
          "type": "uint32"
        },
        {
          "indexed": false,
          "internalType": "bytes32",
          "name": "contentHash",
          "type": "bytes32"
        }
      ],
      "name": "ClassFinalized",
      "type": "event"
    },
    {
      "anonymous": false,
      "inputs": [
        {
          "indexed": false,
          "internalType": "address",
          "name": "teacher",
          "type": "address"
        }
      ],
      "name": "TeacherRegistered",
      "type": "event"
    },
    {
      "inputs": [],
      "name": "attendanceToken",
      "outputs": [
        {
          "internalType": "contract AttendanceToken",
          "name": "",
          "type": "address"
        }
      ],
      "stateMutability": "view",
      "type": "function"
    },
    {
      "inputs": [
        {
          "internalType": "string",
          "name": "_uniqueCode",
          "type": "string"
        },
        {
          "internalType": "address",
          "name": "account",
          "type": "address"
        },
        {
          "internalType": "bytes32[]",
          "name": "proof",
          "type": "bytes32[]"
        }
      ],
      "name": "claim",
      "outputs": [],
      "stateMutability": "nonpayable",
      "type": "function"
    },
    {
      "inputs": [
        {
          "internalType": "string",
          "name": "",
          "type": "string"
        },
        {
          "internalType": "address",
          "name": "",
          "type": "address"
        }
      ],
      "name": "claimed",
      "outputs": [
        {
          "internalType": "bool",
          "name": "",
          "type": "bool"
        }
      ],
      "stateMutability": "view",
      "type": "function"
    },
    {
      "inputs": [
        {
          "internalType": "string",
          "name": "",
          "type": "string"
        }
      ],
      "name": "classContentHash",
      "outputs": [
        {
          "internalType": "bytes32",
          "name": "",
          "type": "bytes32"
        }
      ],
      "stateMutability": "view",
      "type": "function"
    },
    {
      "inputs": [
        {
          "internalType": "string",
          "name": "",
          "type": "string"
        }
      ],
      "name": "classFinalized",
      "outputs": [
        {
          "internalType": "bool",
          "name": "",
          "type": "bool"
        }
      ],
      "stateMutability": "view",
      "type": "function"
    },
    {
      "inputs": [
        {
          "internalType": "string",
          "name": "",
          "type": "string"
        }
      ],
      "name": "classRoot",
      "outputs": [
        {
          "internalType": "bytes32",
          "name": "",
          "type": "bytes32"
        }
      ],
      "stateMutability": "view",
      "type": "function"
    },
    {
      "inputs": [
        {
          "internalType": "string",
          "name": "",
          "type": "string"
        }
      ],
      "name": "classTotal",
      "outputs": [
        {
          "internalType": "uint32",
          "name": "",
          "type": "uint32"
        }
      ],
      "stateMutability": "view",
      "type": "function"
    },
    {
      "inputs": [
        {
          "internalType": "string",
          "name": "",
          "type": "string"
        }
      ],
      "name": "classes",
      "outputs": [
        {
          "internalType": "string",
          "name": "name",
          "type": "string"
        },
        {
          "internalType": "address",
          "name": "teacher",
          "type": "address"
        },
        {
          "internalType": "string",
          "name": "uniqueCode",
          "type": "string"
        },
        {
          "internalType": "uint256",
          "name": "date",
          "type": "uint256"
        },
        {
          "internalType": "bool",
          "name": "isActive",
          "type": "bool"
        },
        {
          "internalType": "string",
          "name": "currentAttendanceCode",
          "type": "string"
        },
        {
          "internalType": "uint256",
          "name": "codeTimestamp",
          "type": "uint256"
        }
      ],
      "stateMutability": "view",
      "type": "function"
    },
    {
      "inputs": [
        {
          "internalType": "string",
          "name": "_name",
          "type": "string"
        },
        {
          "internalType": "string",
          "name": "_uniqueCode",
          "type": "string"
        },
        {
          "internalType": "uint256",
          "name": "_date",
          "type": "uint256"
        }
      ],
      "name": "createClass",
      "outputs": [],
      "stateMutability": "nonpayable",
      "type": "function"
    },
    {
      "inputs": [
        {
          "internalType": "string",
          "name": "_uniqueCode",
          "type": "string"
        },
        {
          "internalType": "bytes32",
          "name": "_root",
          "type": "bytes32"
        },
        {
          "internalType": "uint32",
          "name": "_total",
          "type": "uint32"
        },
        {
          "internalType": "bytes32",
          "name": "_contentHash",
          "type": "bytes32"
        }
      ],
      "name": "finalizeClass",
      "outputs": [],
      "stateMutability": "nonpayable",
      "type": "function"
    },
    {
      "inputs": [
        {
          "internalType": "string",
          "name": "_uniqueCode",
          "type": "string"
        }
      ],
      "name": "getClassDetails",
      "outputs": [
        {
          "internalType": "string",
          "name": "name",
          "type": "string"
        },
        {
          "internalType": "address",
          "name": "teacher",
          "type": "address"
        },
        {
          "internalType": "uint256",
          "name": "date",
          "type": "uint256"
        },
        {
          "internalType": "bool",
          "name": "isActive",
          "type": "bool"
        }
      ],
      "stateMutability": "view",
      "type": "function"
    },
    {
      "inputs": [
        {
          "internalType": "string",
          "name": "_uniqueCode",
          "type": "string"
        }
      ],
      "name": "getFinalization",
      "outputs": [
        {
          "internalType": "bytes32",
          "name": "root",
          "type": "bytes32"
        },
        {
          "internalType": "uint32",
          "name": "total",
          "type": "uint32"
        },
        {
          "internalType": "bytes32",
          "name": "contentHash",
          "type": "bytes32"
        },
        {
          "internalType": "bool",
          "name": "finalized",
          "type": "bool"
        }
      ],
      "stateMutability": "view",
      "type": "function"
    },
    {
      "inputs": [
        {
          "internalType": "address",
          "name": "_student",
          "type": "address"
        }
      ],
      "name": "getStudentClasses",
      "outputs": [
        {
          "internalType": "string[]",
          "name": "",
          "type": "string[]"
        }
      ],
      "stateMutability": "view",
      "type": "function"
    },
    {
      "inputs": [
        {
          "internalType": "address",
          "name": "_teacher",
          "type": "address"
        }
      ],
      "name": "getTeacherClasses",
      "outputs": [
        {
          "internalType": "string[]",
          "name": "",
          "type": "string[]"
        }
      ],
      "stateMutability": "view",
      "type": "function"
    },
    {
      "inputs": [
        {
          "internalType": "string",
          "name": "_uniqueCode",
          "type": "string"
        },
        {
          "internalType": "address",
          "name": "_student",
          "type": "address"
        }
      ],
      "name": "hasAttended",
      "outputs": [
        {
          "internalType": "bool",
          "name": "",
          "type": "bool"
        }
      ],
      "stateMutability": "view",
      "type": "function"
    },
    {
      "inputs": [
        {
          "internalType": "string",
          "name": "_uniqueCode",
          "type": "string"
        },
        {
          "internalType": "string",
          "name": "_submittedCode",
          "type": "string"
        }
      ],
      "name": "markAttendance",
      "outputs": [],
      "stateMutability": "nonpayable",
      "type": "function"
    },
    {
      "inputs": [],
      "name": "registerTeacher",
      "outputs": [],
      "stateMutability": "nonpayable",
      "type": "function"
    },
    {
      "inputs": [
        {
          "internalType": "address",
          "name": "",
          "type": "address"
        }
      ],
      "name": "registeredTeachers",
      "outputs": [
        {
          "internalType": "bool",
          "name": "",
          "type": "bool"
        }
      ],
      "stateMutability": "view",
      "type": "function"
    },
    {
      "inputs": [
        {
          "internalType": "address",
          "name": "",
          "type": "address"
        },
        {
          "internalType": "uint256",
          "name": "",
          "type": "uint256"
        }
      ],
      "name": "studentClasses",
      "outputs": [
        {
          "internalType": "string",
          "name": "",
          "type": "string"
        }
      ],
      "stateMutability": "view",
      "type": "function"
    },
    {
      "inputs": [
        {
          "internalType": "address",
          "name": "",
          "type": "address"
        },
        {
          "internalType": "uint256",
          "name": "",
          "type": "uint256"
        }
      ],
      "name": "teacherClasses",
      "outputs": [
        {
          "internalType": "string",
          "name": "",
          "type": "string"
        }
      ],
      "stateMutability": "view",
      "type": "function"
    },
    {
      "inputs": [
        {
          "internalType": "string",
          "name": "_uniqueCode",
          "type": "string"
        },
        {
          "internalType": "string",
          "name": "_attendanceCode",
          "type": "string"
        }
      ],
      "name": "updateAttendanceCode",
      "outputs": [],
      "stateMutability": "nonpayable",
      "type": "function"
    }
  ],
  "bytecode": "0x6080604052348015600e575f5ffd5b5060405161202f38038061202f833981016040819052602b91604e565b5f80546001600160a01b0319166001600160a01b03929092169190911790556079565b5f60208284031215605d575f5ffd5b81516001600160a01b03811681146072575f5ffd5b9392505050565b611fa9806100865f395ff3fe608060405234801561000f575f5ffd5b5060043610610132575f3560e01c80639aebe252116100b4578063bf2b59f111610079578063bf2b59f114610382578063d61b9ac2146103a2578063df291c75146103b5578063e14f2c30146103d8578063f4b89ff6146103eb578063f4e5ca02146103fe575f5ffd5b80639aebe252146102e15780639ba2c41b146102f4578063a9b5e2ea14610307578063ae31a87714610331578063bc70824e14610357575f5ffd5b806345128bc4116100fa57806345128bc41461021a5780634fd6a0e91461022d57806350318ade146102675780636d8110df146102a05780636ed384ec146102b3575f5ffd5b806306593dbd1461013657806314c6b12514610140578063220389971461018b5780632ed25620146101bd578063306985d7146101fa575b5f5ffd5b61013e610411565b005b61017161014e366004611734565b805160208183018101805160068252928201919093012091525463ffffffff1681565b60405163ffffffff90911681526020015b60405180910390f35b6101ad610199366004611788565b60016020525f908152604090205460ff1681565b6040519015158152602001610182565b6101ad6101cb3660046117a8565b81516020818401810180516009825292820194820194909420919093529091525f908152604090205460ff1681565b61020d610208366004611788565b6104c5565b6040516101829190611820565b61013e610228366004611883565b6105af565b61024061023b366004611734565b610828565b6040805194855263ffffffff90931660208501529183015215156060820152608001610182565b610292610275366004611734565b805160208183018101805160078252928201919093012091525481565b604051908152602001610182565b6101ad6102ae3660046117a8565b6108c3565b6101ad6102c1366004611734565b805160208183018101805160088252928201919093012091525460ff1681565b61013e6102ef3660046118e7565b61090a565b61013e61030236600461198b565b610c10565b5f54610319906001600160a01b031681565b6040516001600160a01b039091168152602001610182565b61034461033f366004611734565b610d71565b60405161018297969594939291906119ee565b610292610365366004611734565b805160208183018101805160058252928201919093012091525481565b610395610390366004611a58565b610f5f565b6040516101829190611a80565b6103956103b0366004611a58565b611010565b6103c86103c3366004611734565b611029565b6040516101829493929190611a92565b61013e6103e6366004611acb565b61110f565b61013e6103f936600461198b565b611287565b61020d61040c366004611788565b611515565b335f9081526001602052604090205460ff16156104755760405162461bcd60e51b815260206004820152601d60248201527f416c72656164792072656769737465726564206173207465616368657200000060448201526064015b60405180910390fd5b335f81815260016020818152604092839020805460ff191690921790915590519182527fde256622a68c110b10d2bfa4a983d8c309a49b3f1c1e5af8c8dc50209835cc61910160405180910390a1565b6001600160a01b0381165f908152600460209081526040808320805482518185028101850190935280835260609492939192909184015b828210156105a4578382905f5260205f2001805461051990611b37565b80601f016020809104026020016040519081016040528092919081815260200182805461054590611b37565b80156105905780601f1061056757610100808354040283529160200191610590565b820191905f5260205f20905b81548152906001019060200180831161057357829003601f168201915b5050505050815260200190600101906104fc565b505050509050919050565b335f9081526001602052604090205460ff166105dd5760405162461bcd60e51b815260040161046c90611b6f565b336001600160a01b03166002856040516105f79190611bbd565b908152604051908190036020019020600101546001600160a01b0316146106585760405162461bcd60e51b81526020600482015260156024820152742737ba103a34329031b630b9b9903a32b0b1b432b960591b604482015260640161046c565b6002846040516106689190611bbd565b9081526040519081900360200190206004015460ff1661069a5760405162461bcd60e51b815260040161046c90611bc8565b6008846040516106aa9190611bbd565b9081526040519081900360200190205460ff16156106fe5760405162461bcd60e51b8152602060048201526011602482015270105b1c9958591e48199a5b985b1a5e9959607a1b604482015260640161046c565b8260058560405161070f9190611bbd565b908152602001604051809103902081905550816006856040516107329190611bbd565b90815260200160405180910390205f6101000a81548163ffffffff021916908363ffffffff1602179055508060078560405161076e9190611bbd565b90815260200160405180910390208190555060016008856040516107929190611bbd565b908152604051908190036020018120805492151560ff19909316929092179091555f906002906107c3908790611bbd565b908152604051908190036020018120600401805492151560ff19909316929092179091557ff91ab8ac8d578de0068bd3a7750cffde8e7e8c258bd4d0ae4b5696b78b3d02c69061081a908690869086908690611bf5565b60405180910390a150505050565b5f5f5f5f60058560405161083c9190611bbd565b90815260200160405180910390205460068660405161085b9190611bbd565b9081526040519081900360200181205463ffffffff1690600790610880908990611bbd565b90815260200160405180910390205460088860405161089f9190611bbd565b90815260405190819003602001902054929650909450925060ff1690509193509193565b5f6002836040516108d49190611bbd565b90815260408051602092819003830190206001600160a01b0385165f908152600590910190925290205460ff1690505b92915050565b60088460405161091a9190611bbd565b9081526040519081900360200190205460ff166109695760405162461bcd60e51b815260206004820152600d60248201526c139bdd08199a5b985b1a5e9959609a1b604482015260640161046c565b6001600160a01b03831633146109b35760405162461bcd60e51b815260206004820152600f60248201526e4f6e6c792073656c662d636c61696d60881b604482015260640161046c565b6009846040516109c39190611bbd565b90815260408051602092819003830190206001600160a01b0386165f908152925290205460ff1615610a295760405162461bcd60e51b815260206004820152600f60248201526e105b1c9958591e4818db185a5b5959608a1b604482015260640161046c565b5f46308686604051602001610a419493929190611c29565b604051602081830303815290604052805190602001209050610ab48383808060200260200160405190810160405280939291908181526020018383602002808284375f920191909152505060405160059250610a9f91508990611bbd565b908152602001604051809103902054836115f4565b610af05760405162461bcd60e51b815260206004820152600d60248201526c24b73b30b634b210383937b7b360991b604482015260640161046c565b6001600986604051610b029190611bbd565b90815260408051602092819003830181206001600160a01b0389165f9081529352908220805460ff19169315159390931790925590600290610b45908890611bbd565b9081526040519081900360200181205f5460018201546303c07e3760e21b84529193506001600160a01b0390811692630f01f8dc92610b8e928a92879290911690600401611c75565b6020604051808303815f875af1158015610baa573d5f5f3e3d5ffd5b505050506040513d601f19601f82011682018060405250810190610bce9190611d1b565b507fddc2463a16ab9b96d078534745f6f71812635a622d6f66cc91089de0400c94d28686604051610c00929190611d32565b60405180910390a1505050505050565b335f9081526001602052604090205460ff16610c3e5760405162461bcd60e51b815260040161046c90611b6f565b336001600160a01b0316600283604051610c589190611bbd565b908152604051908190036020019020600101546001600160a01b031614610cb95760405162461bcd60e51b81526020600482015260156024820152742737ba103a34329031b630b9b9903a32b0b1b432b960591b604482015260640161046c565b600282604051610cc99190611bbd565b9081526040519081900360200190206004015460ff16610cfb5760405162461bcd60e51b815260040161046c90611bc8565b5f600283604051610d0c9190611bbd565b908152604051908190036020019020905060068101610d2b8382611da7565b504260078201556040517f14ccbe4efa365c06775a7028643cc3b5b8275ac74a49b26712929fd82bcceba790610d649085908590611e61565b60405180910390a1505050565b8051602081830181018051600282529282019190930120915280548190610d9790611b37565b80601f0160208091040260200160405190810160405280929190818152602001828054610dc390611b37565b8015610e0e5780601f10610de557610100808354040283529160200191610e0e565b820191905f5260205f20905b815481529060010190602001808311610df157829003601f168201915b505050600184015460028501805494956001600160a01b03909216949193509150610e3890611b37565b80601f0160208091040260200160405190810160405280929190818152602001828054610e6490611b37565b8015610eaf5780601f10610e8657610100808354040283529160200191610eaf565b820191905f5260205f20905b815481529060010190602001808311610e9257829003601f168201915b50505050600383015460048401546006850180549495929460ff909216935090610ed890611b37565b80601f0160208091040260200160405190810160405280929190818152602001828054610f0490611b37565b8015610f4f5780601f10610f2657610100808354040283529160200191610f4f565b820191905f5260205f20905b815481529060010190602001808311610f3257829003601f168201915b5050505050908060070154905087565b6004602052815f5260405f208181548110610f78575f80fd5b905f5260205f20015f91509150508054610f9190611b37565b80601f0160208091040260200160405190810160405280929190818152602001828054610fbd90611b37565b80156110085780601f10610fdf57610100808354040283529160200191611008565b820191905f5260205f20905b815481529060010190602001808311610feb57829003601f168201915b505050505081565b6003602052815f5260405f208181548110610f78575f80fd5b60605f5f5f5f60028660405161103f9190611bbd565b908152604051908190036020019020600181015460038201546004830154835493945084936001600160a01b039093169260ff90911690849061108190611b37565b80601f01602080910402602001604051908101604052809291908181526020018280546110ad90611b37565b80156110f85780601f106110cf576101008083540402835291602001916110f8565b820191905f5260205f20905b8154815290600101906020018083116110db57829003601f168201915b505050505093509450945094509450509193509193565b335f9081526001602052604090205460ff1661113d5760405162461bcd60e51b815260040161046c90611b6f565b5f6001600160a01b03166002836040516111579190611bbd565b908152604051908190036020019020600101546001600160a01b0316146111c05760405162461bcd60e51b815260206004820152601960248201527f436c61737320636f646520616c72656164792065786973747300000000000000604482015260640161046c565b5f6002836040516111d19190611bbd565b9081526040519081900360200190209050806111ed8582611da7565b506001810180546001600160a01b03191633179055600281016112108482611da7565b50600380820183905560048201805460ff19166001908117909155335f90815260209283526040812080549283018155815291909120016112518482611da7565b507f7b634df0ecd96360711ccf66ef8bdf4bd5906dbd87f9ad758cdcf4cfbf343c638385338560405161081a9493929190611e8e565b5f6002836040516112989190611bbd565b908152604051908190036020019020600481015490915060ff166112ce5760405162461bcd60e51b815260040161046c90611bc8565b335f90815260058201602052604090205460ff161561132f5760405162461bcd60e51b815260206004820152601960248201527f416c7265616479206d61726b656420617474656e64616e636500000000000000604482015260640161046c565b816040516020016113409190611bbd565b604051602081830303815290604052805190602001208160060160405160200161136a9190611ecf565b60405160208183030381529060405280519060200120146113cd5760405162461bcd60e51b815260206004820152601760248201527f496e76616c696420617474656e64616e636520636f6465000000000000000000604482015260640161046c565b60078101546113dd906005611f40565b42111561142c5760405162461bcd60e51b815260206004820152601760248201527f417474656e64616e636520636f64652065787069726564000000000000000000604482015260640161046c565b335f9081526005820160209081526040808320805460ff191660019081179091556004835290832080549182018155835291200161146a8482611da7565b505f5460018201546040516303c07e3760e21b81526001600160a01b0392831692630f01f8dc926114a392339287921690600401611c75565b6020604051808303815f875af11580156114bf573d5f5f3e3d5ffd5b505050506040513d601f19601f820116820180604052508101906114e39190611d1b565b507ff61279d32de058f920395078b0092668c28e05bd1efe61fe60f7ec9ddce118908333604051610d64929190611d32565b6001600160a01b0381165f908152600360209081526040808320805482518185028101850190935280835260609492939192909184015b828210156105a4578382905f5260205f2001805461156990611b37565b80601f016020809104026020016040519081016040528092919081815260200182805461159590611b37565b80156115e05780601f106115b7576101008083540402835291602001916115e0565b820191905f5260205f20905b8154815290600101906020018083116115c357829003601f168201915b50505050508152602001906001019061154c565b5f81815b855181101561168c575f86828151811061161457611614611f5f565b60200260200101519050808311611656576040805160208101859052908101829052606001604051602081830303815290604052805190602001209250611683565b60408051602081018390529081018490526060016040516020818303038152906040528051906020012092505b506001016115f8565b509092149392505050565b634e487b7160e01b5f52604160045260245ffd5b5f82601f8301126116ba575f5ffd5b81356001600160401b038111156116d3576116d3611697565b604051601f8201601f19908116603f011681016001600160401b038111828210171561170157611701611697565b604052818152838201602001851015611718575f5ffd5b816020850160208301375f918101602001919091529392505050565b5f60208284031215611744575f5ffd5b81356001600160401b03811115611759575f5ffd5b611765848285016116ab565b949350505050565b80356001600160a01b0381168114611783575f5ffd5b919050565b5f60208284031215611798575f5ffd5b6117a18261176d565b9392505050565b5f5f604083850312156117b9575f5ffd5b82356001600160401b038111156117ce575f5ffd5b6117da858286016116ab565b9250506117e96020840161176d565b90509250929050565b5f81518084528060208401602086015e5f602082860101526020601f19601f83011685010191505092915050565b5f602082016020835280845180835260408501915060408160051b8601019250602086015f5b8281101561187757603f198786030184526118628583516117f2565b94506020938401939190910190600101611846565b50929695505050505050565b5f5f5f5f60808587031215611896575f5ffd5b84356001600160401b038111156118ab575f5ffd5b6118b7878288016116ab565b94505060208501359250604085013563ffffffff811681146118d7575f5ffd5b9396929550929360600135925050565b5f5f5f5f606085870312156118fa575f5ffd5b84356001600160401b0381111561190f575f5ffd5b61191b878288016116ab565b94505061192a6020860161176d565b925060408501356001600160401b03811115611944575f5ffd5b8501601f81018713611954575f5ffd5b80356001600160401b03811115611969575f5ffd5b8760208260051b840101111561197d575f5ffd5b949793965060200194505050565b5f5f6040838503121561199c575f5ffd5b82356001600160401b038111156119b1575f5ffd5b6119bd858286016116ab565b92505060208301356001600160401b038111156119d8575f5ffd5b6119e4858286016116ab565b9150509250929050565b60e081525f611a0060e083018a6117f2565b6001600160a01b03891660208401528281036040840152611a2181896117f2565b9050866060840152851515608084015282810360a0840152611a4381866117f2565b9150508260c083015298975050505050505050565b5f5f60408385031215611a69575f5ffd5b611a728361176d565b946020939093013593505050565b602081525f6117a160208301846117f2565b608081525f611aa460808301876117f2565b6001600160a01b039590951660208301525060408101929092521515606090910152919050565b5f5f5f60608486031215611add575f5ffd5b83356001600160401b03811115611af2575f5ffd5b611afe868287016116ab565b93505060208401356001600160401b03811115611b19575f5ffd5b611b25868287016116ab565b93969395505050506040919091013590565b600181811c90821680611b4b57607f821691505b602082108103611b6957634e487b7160e01b5f52602260045260245ffd5b50919050565b60208082526019908201527f4e6f742072656769737465726564206173207465616368657200000000000000604082015260600190565b5f81518060208401855e5f93019283525090919050565b5f6117a18284611ba6565b602080825260139082015272436c617373206973206e6f742061637469766560681b604082015260600190565b608081525f611c0760808301876117f2565b60208301959095525063ffffffff929092166040830152606090910152919050565b8481526bffffffffffffffffffffffff198460601b1660208201525f611c526034830185611ba6565b60609390931b6bffffffffffffffffffffffff1916835250506014019392505050565b6001600160a01b03841681526060602082015282545f908190611c9781611b37565b806060860152600182165f8114611cb55760018114611cd157611d02565b60ff1983166080870152608082151560051b8701019350611d02565b875f5260205f205f5b83811015611cf957815488820160800152600190910190602001611cda565b87016080019450505b5050506001600160a01b03841660408401529050611765565b5f60208284031215611d2b575f5ffd5b5051919050565b604081525f611d4460408301856117f2565b905060018060a01b03831660208301529392505050565b601f821115611da257805f5260205f20601f840160051c81016020851015611d805750805b601f840160051c820191505b81811015611d9f575f8155600101611d8c565b50505b505050565b81516001600160401b03811115611dc057611dc0611697565b611dd481611dce8454611b37565b84611d5b565b6020601f821160018114611e06575f8315611def5750848201515b5f19600385901b1c1916600184901b178455611d9f565b5f84815260208120601f198516915b82811015611e355787850151825560209485019460019092019101611e15565b5084821015611e5257868401515f19600387901b60f8161c191681555b50505050600190811b01905550565b604081525f611e7360408301856117f2565b8281036020840152611e8581856117f2565b95945050505050565b608081525f611ea060808301876117f2565b8281036020840152611eb281876117f2565b6001600160a01b0395909516604084015250506060015292915050565b5f5f8354611edc81611b37565b600182168015611ef35760018114611f0857611f35565b60ff1983168652811515820286019350611f35565b865f5260205f205f5b83811015611f2d57815488820152600190910190602001611f11565b505081860193505b509195945050505050565b8082018082111561090457634e487b7160e01b5f52601160045260245ffd5b634e487b7160e01b5f52603260045260245ffdfea264697066735822122069757e937189ba7b3de2b9365c1aec37990132c0022537ea16b85d8b8eeef43464736f6c634300081c0033",
  "linkReferences": {},
  "deployedLinkReferences": {},
  "immutableReferences": {},
  "inputSourceName": "project/contracts/AttendanceSystem.sol",
  "buildInfoId": "solc-0_8_28-0a8c8914a3bdeb2105c26e280969b9dfdd1bdadf"
}